{
  "_format": "hh-sol-artifact-1",
  "contractName": "PoolV1",
  "sourceName": "contracts/poolV1.sol",
  "abi": [
    {
      "inputs": [
        {
          "internalType": "address",
          "name": "_token",
          "type": "address"
        }
      ],
      "stateMutability": "nonpayable",
      "type": "constructor"
    },
    {
      "anonymous": false,
      "inputs": [
        {
          "indexed": true,
          "internalType": "address",
          "name": "owner",
          "type": "address"
        },
        {
          "indexed": true,
          "internalType": "address",
          "name": "spender",
          "type": "address"
        },
        {
          "indexed": false,
          "internalType": "uint256",
          "name": "value",
          "type": "uint256"
        }
      ],
      "name": "Approval",
      "type": "event"
    },
    {
      "anonymous": false,
      "inputs": [
        {
          "indexed": true,
          "internalType": "address",
          "name": "previousOwner",
          "type": "address"
        },
        {
          "indexed": true,
          "internalType": "address",
          "name": "newOwner",
          "type": "address"
        }
      ],
      "name": "OwnershipTransferred",
      "type": "event"
    },
    {
      "anonymous": false,
      "inputs": [
        {
          "indexed": true,
          "internalType": "address",
          "name": "from",
          "type": "address"
        },
        {
          "indexed": true,
          "internalType": "address",
          "name": "to",
          "type": "address"
        },
        {
          "indexed": false,
          "internalType": "uint256",
          "name": "value",
          "type": "uint256"
        }
      ],
      "name": "Transfer",
      "type": "event"
    },
    {
      "inputs": [
        {
          "internalType": "uint256",
          "name": "tokensIn",
          "type": "uint256"
        },
        {
          "internalType": "uint256",
          "name": "minOut",
          "type": "uint256"
        }
      ],
      "name": "TokenToEtherSwap",
      "outputs": [],
      "stateMutability": "payable",
      "type": "function"
    },
    {
      "inputs": [
        {
          "internalType": "uint256",
          "name": "tokensAmount",
          "type": "uint256"
        }
      ],
      "name": "addLiquidity",
      "outputs": [],
      "stateMutability": "payable",
      "type": "function"
    },
    {
      "inputs": [
        {
          "internalType": "address",
          "name": "owner",
          "type": "address"
        },
        {
          "internalType": "address",
          "name": "spender",
          "type": "address"
        }
      ],
      "name": "allowance",
      "outputs": [
        {
          "internalType": "uint256",
          "name": "",
          "type": "uint256"
        }
      ],
      "stateMutability": "view",
      "type": "function"
    },
    {
      "inputs": [
        {
          "internalType": "address",
          "name": "spender",
          "type": "address"
        },
        {
          "internalType": "uint256",
          "name": "amount",
          "type": "uint256"
        }
      ],
      "name": "approve",
      "outputs": [
        {
          "internalType": "bool",
          "name": "",
          "type": "bool"
        }
      ],
      "stateMutability": "nonpayable",
      "type": "function"
    },
    {
      "inputs": [
        {
          "internalType": "address",
          "name": "account",
          "type": "address"
        }
      ],
      "name": "balanceOf",
      "outputs": [
        {
          "internalType": "uint256",
          "name": "",
          "type": "uint256"
        }
      ],
      "stateMutability": "view",
      "type": "function"
    },
    {
      "inputs": [],
      "name": "decimals",
      "outputs": [
        {
          "internalType": "uint8",
          "name": "",
          "type": "uint8"
        }
      ],
      "stateMutability": "view",
      "type": "function"
    },
    {
      "inputs": [
        {
          "internalType": "address",
          "name": "spender",
          "type": "address"
        },
        {
          "internalType": "uint256",
          "name": "subtractedValue",
          "type": "uint256"
        }
      ],
      "name": "decreaseAllowance",
      "outputs": [
        {
          "internalType": "bool",
          "name": "",
          "type": "bool"
        }
      ],
      "stateMutability": "nonpayable",
      "type": "function"
    },
    {
      "inputs": [],
      "name": "etherFees",
      "outputs": [
        {
          "internalType": "uint256",
          "name": "",
          "type": "uint256"
        }
      ],
      "stateMutability": "view",
      "type": "function"
    },
    {
      "inputs": [
        {
          "internalType": "uint256",
          "name": "minOut",
          "type": "uint256"
        }
      ],
      "name": "etherToTokenSwap",
      "outputs": [],
      "stateMutability": "payable",
      "type": "function"
    },
    {
      "inputs": [],
      "name": "factory",
      "outputs": [
        {
          "internalType": "address",
          "name": "",
          "type": "address"
        }
      ],
      "stateMutability": "view",
      "type": "function"
    },
    {
      "inputs": [
        {
          "internalType": "uint256",
          "name": "tokensIn",
          "type": "uint256"
        },
        {
          "internalType": "uint256",
          "name": "InRes",
          "type": "uint256"
        },
        {
          "internalType": "uint256",
          "name": "outRes",
          "type": "uint256"
        }
      ],
      "name": "getAmountsOut",
      "outputs": [
        {
          "internalType": "uint256",
          "name": "",
          "type": "uint256"
        }
      ],
      "stateMutability": "pure",
      "type": "function"
    },
    {
      "inputs": [],
      "name": "getEtherReserves",
      "outputs": [
        {
          "internalType": "uint256",
          "name": "",
          "type": "uint256"
        }
      ],
      "stateMutability": "view",
      "type": "function"
    },
    {
      "inputs": [],
      "name": "getTokenReserves",
      "outputs": [
        {
          "internalType": "uint256",
          "name": "",
          "type": "uint256"
        }
      ],
      "stateMutability": "view",
      "type": "function"
    },
    {
      "inputs": [
        {
          "internalType": "address",
          "name": "spender",
          "type": "address"
        },
        {
          "internalType": "uint256",
          "name": "addedValue",
          "type": "uint256"
        }
      ],
      "name": "increaseAllowance",
      "outputs": [
        {
          "internalType": "bool",
          "name": "",
          "type": "bool"
        }
      ],
      "stateMutability": "nonpayable",
      "type": "function"
    },
    {
      "inputs": [],
      "name": "name",
      "outputs": [
        {
          "internalType": "string",
          "name": "",
          "type": "string"
        }
      ],
      "stateMutability": "view",
      "type": "function"
    },
    {
      "inputs": [],
      "name": "owner",
      "outputs": [
        {
          "internalType": "address",
          "name": "",
          "type": "address"
        }
      ],
      "stateMutability": "view",
      "type": "function"
    },
    {
      "inputs": [
        {
          "internalType": "uint256",
          "name": "lpTokens",
          "type": "uint256"
        }
      ],
      "name": "removeLiquidity",
      "outputs": [],
      "stateMutability": "payable",
      "type": "function"
    },
    {
      "inputs": [],
      "name": "renounceOwnership",
      "outputs": [],
      "stateMutability": "nonpayable",
      "type": "function"
    },
    {
      "inputs": [],
      "name": "symbol",
      "outputs": [
        {
          "internalType": "string",
          "name": "",
          "type": "string"
        }
      ],
      "stateMutability": "view",
      "type": "function"
    },
    {
      "inputs": [],
      "name": "token",
      "outputs": [
        {
          "internalType": "contract IERC20",
          "name": "",
          "type": "address"
        }
      ],
      "stateMutability": "view",
      "type": "function"
    },
    {
      "inputs": [],
      "name": "tokenFees",
      "outputs": [
        {
          "internalType": "uint256",
          "name": "",
          "type": "uint256"
        }
      ],
      "stateMutability": "view",
      "type": "function"
    },
    {
      "inputs": [],
      "name": "totalSupply",
      "outputs": [
        {
          "internalType": "uint256",
          "name": "",
          "type": "uint256"
        }
      ],
      "stateMutability": "view",
      "type": "function"
    },
    {
      "inputs": [
        {
          "internalType": "address",
          "name": "to",
          "type": "address"
        },
        {
          "internalType": "uint256",
          "name": "amount",
          "type": "uint256"
        }
      ],
      "name": "transfer",
      "outputs": [
        {
          "internalType": "bool",
          "name": "",
          "type": "bool"
        }
      ],
      "stateMutability": "nonpayable",
      "type": "function"
    },
    {
      "inputs": [
        {
          "internalType": "address",
          "name": "from",
          "type": "address"
        },
        {
          "internalType": "address",
          "name": "to",
          "type": "address"
        },
        {
          "internalType": "uint256",
          "name": "amount",
          "type": "uint256"
        }
      ],
      "name": "transferFrom",
      "outputs": [
        {
          "internalType": "bool",
          "name": "",
          "type": "bool"
        }
      ],
      "stateMutability": "nonpayable",
      "type": "function"
    },
    {
      "inputs": [
        {
          "internalType": "address",
          "name": "newOwner",
          "type": "address"
        }
      ],
      "name": "transferOwnership",
      "outputs": [],
      "stateMutability": "nonpayable",
      "type": "function"
    }
  ],
  "bytecode": "0x60806040523480156200001157600080fd5b50604051620030a2380380620030a2833981810160405281019062000037919062000366565b6040518060400160405280600c81526020017f41746f6d44657856312d4c5000000000000000000000000000000000000000008152506040518060400160405280600381526020017f414c500000000000000000000000000000000000000000000000000000000000815250620000c3620000b76200018060201b60201c565b6200018860201b60201c565b8160049080519060200190620000db9291906200024c565b508060059080519060200190620000f49291906200024c565b50505080600660006101000a81548173ffffffffffffffffffffffffffffffffffffffff021916908373ffffffffffffffffffffffffffffffffffffffff16021790555033600760006101000a81548173ffffffffffffffffffffffffffffffffffffffff021916908373ffffffffffffffffffffffffffffffffffffffff16021790555050620003fd565b600033905090565b60008060009054906101000a900473ffffffffffffffffffffffffffffffffffffffff169050816000806101000a81548173ffffffffffffffffffffffffffffffffffffffff021916908373ffffffffffffffffffffffffffffffffffffffff1602179055508173ffffffffffffffffffffffffffffffffffffffff168173ffffffffffffffffffffffffffffffffffffffff167f8be0079c531659141344cd1fd0a4f28419497f9722a3daafe3b4186f6b6457e060405160405180910390a35050565b8280546200025a90620003c7565b90600052602060002090601f0160209004810192826200027e5760008555620002ca565b82601f106200029957805160ff1916838001178555620002ca565b82800160010185558215620002ca579182015b82811115620002c9578251825591602001919060010190620002ac565b5b509050620002d99190620002dd565b5090565b5b80821115620002f8576000816000905550600101620002de565b5090565b600080fd5b600073ffffffffffffffffffffffffffffffffffffffff82169050919050565b60006200032e8262000301565b9050919050565b620003408162000321565b81146200034c57600080fd5b50565b600081519050620003608162000335565b92915050565b6000602082840312156200037f576200037e620002fc565b5b60006200038f848285016200034f565b91505092915050565b7f4e487b7100000000000000000000000000000000000000000000000000000000600052602260045260246000fd5b60006002820490506001821680620003e057607f821691505b60208210811415620003f757620003f662000398565b5b50919050565b612c95806200040d6000396000f3fe6080604052600436106101665760003560e01c806395d89b41116100d1578063b9cf50051161008a578063dd62ed3e11610064578063dd62ed3e1461052f578063e8a7e8a91461056c578063f2fde38b14610588578063fc0c546a146105b157610166565b8063b9cf5005146104ae578063c45a0155146104d9578063d2ef41ed1461050457610166565b806395d89b41146103855780639c8f9f23146103b0578063a457c2d7146103cc578063a9059cbb14610409578063ab731cfa14610446578063b37ba1281461047157610166565b8063313ce56711610123578063313ce5671461028257806339509351146102ad57806351c6590a146102ea57806370a0823114610306578063715018a6146103435780638da5cb5b1461035a57610166565b806306fdde031461016b578063095ea7b3146101965780630b945a26146101d357806313261fcb146101fe57806318160ddd1461021a57806323b872dd14610245575b600080fd5b34801561017757600080fd5b506101806105dc565b60405161018d9190611c14565b60405180910390f35b3480156101a257600080fd5b506101bd60048036038101906101b89190611ccf565b61066e565b6040516101ca9190611d2a565b60405180910390f35b3480156101df57600080fd5b506101e8610691565b6040516101f59190611d54565b60405180910390f35b61021860048036038101906102139190611d6f565b610697565b005b34801561022657600080fd5b5061022f610844565b60405161023c9190611d54565b60405180910390f35b34801561025157600080fd5b5061026c60048036038101906102679190611daf565b61084e565b6040516102799190611d2a565b60405180910390f35b34801561028e57600080fd5b5061029761087d565b6040516102a49190611e1e565b60405180910390f35b3480156102b957600080fd5b506102d460048036038101906102cf9190611ccf565b610886565b6040516102e19190611d2a565b60405180910390f35b61030460048036038101906102ff9190611e39565b6108bd565b005b34801561031257600080fd5b5061032d60048036038101906103289190611e66565b610ab4565b60405161033a9190611d54565b60405180910390f35b34801561034f57600080fd5b50610358610afd565b005b34801561036657600080fd5b5061036f610b11565b60405161037c9190611ea2565b60405180910390f35b34801561039157600080fd5b5061039a610b3a565b6040516103a79190611c14565b60405180910390f35b6103ca60048036038101906103c59190611e39565b610bcc565b005b3480156103d857600080fd5b506103f360048036038101906103ee9190611ccf565b610d67565b6040516104009190611d2a565b60405180910390f35b34801561041557600080fd5b50610430600480360381019061042b9190611ccf565b610dde565b60405161043d9190611d2a565b60405180910390f35b34801561045257600080fd5b5061045b610e01565b6040516104689190611d54565b60405180910390f35b34801561047d57600080fd5b5061049860048036038101906104939190611ebd565b610e07565b6040516104a59190611d54565b60405180910390f35b3480156104ba57600080fd5b506104c3610eae565b6040516104d09190611d54565b60405180910390f35b3480156104e557600080fd5b506104ee610f60565b6040516104fb9190611ea2565b60405180910390f35b34801561051057600080fd5b50610519610f86565b6040516105269190611d54565b60405180910390f35b34801561053b57600080fd5b5061055660048036038101906105519190611f10565b610f8e565b6040516105639190611d54565b60405180910390f35b61058660048036038101906105819190611e39565b611015565b005b34801561059457600080fd5b506105af60048036038101906105aa9190611e66565b611183565b005b3480156105bd57600080fd5b506105c6611207565b6040516105d39190611faf565b60405180910390f35b6060600480546105eb90611ff9565b80601f016020809104026020016040519081016040528092919081815260200182805461061790611ff9565b80156106645780601f1061063957610100808354040283529160200191610664565b820191906000526020600020905b81548152906001019060200180831161064757829003601f168201915b5050505050905090565b60008061067961122d565b9050610686818585611235565b600191505092915050565b60095481565b60006106a1610f86565b905060006106ad610eae565b905060006106bc858385610e07565b905082841115610701576040517f08c379a00000000000000000000000000000000000000000000000000000000081526004016106f890612077565b60405180910390fd5b80841115610744576040517f08c379a000000000000000000000000000000000000000000000000000000000815260040161073b906120e3565b60405180910390fd5b600660009054906101000a900473ffffffffffffffffffffffffffffffffffffffff1673ffffffffffffffffffffffffffffffffffffffff166323b872dd3330886040518463ffffffff1660e01b81526004016107a393929190612103565b602060405180830381600087803b1580156107bd57600080fd5b505af11580156107d1573d6000803e3d6000fd5b505050506040513d601f19601f820116820180604052508101906107f59190612166565b503373ffffffffffffffffffffffffffffffffffffffff166108fc829081150290604051600060405180830381858888f1935050505015801561083c573d6000803e3d6000fd5b505050505050565b6000600354905090565b60008061085961122d565b9050610866858285611400565b61087185858561148c565b60019150509392505050565b60006012905090565b60008061089161122d565b90506108b28185856108a38589610f8e565b6108ad91906121c2565b611235565b600191505092915050565b60003411610900576040517f08c379a00000000000000000000000000000000000000000000000000000000081526004016108f790612264565b60405180910390fd5b60008111610943576040517f08c379a000000000000000000000000000000000000000000000000000000000815260040161093a906122d0565b60405180910390fd5b60008061094e610844565b1415610966578190506109613334611707565b6109fe565b61098a3434610973610f86565b61097d91906122f0565b610985610eae565b610e07565b9050818111156109cf576040517f08c379a00000000000000000000000000000000000000000000000000000000081526004016109c690612370565b60405180910390fd5b6109fd336109db610f86565b6109e3610844565b346109ee9190612390565b6109f89190612419565b611707565b5b600660009054906101000a900473ffffffffffffffffffffffffffffffffffffffff1673ffffffffffffffffffffffffffffffffffffffff166323b872dd3330846040518463ffffffff1660e01b8152600401610a5d93929190612103565b602060405180830381600087803b158015610a7757600080fd5b505af1158015610a8b573d6000803e3d6000fd5b505050506040513d601f19601f82011682018060405250810190610aaf9190612166565b505050565b6000600160008373ffffffffffffffffffffffffffffffffffffffff1673ffffffffffffffffffffffffffffffffffffffff168152602001908152602001600020549050919050565b610b0561185f565b610b0f60006118dd565b565b60008060009054906101000a900473ffffffffffffffffffffffffffffffffffffffff16905090565b606060058054610b4990611ff9565b80601f0160208091040260200160405190810160405280929190818152602001828054610b7590611ff9565b8015610bc25780601f10610b9757610100808354040283529160200191610bc2565b820191906000526020600020905b815481529060010190602001808311610ba557829003601f168201915b5050505050905090565b60008111610c0f576040517f08c379a0000000000000000000000000000000000000000000000000000000008152600401610c0690612496565b60405180910390fd5b6000610c19610844565b610c21610f86565b83610c2c9190612390565b610c369190612419565b90506000610c42610844565b610c4a610eae565b84610c559190612390565b610c5f9190612419565b9050610c6b33846119a1565b600660009054906101000a900473ffffffffffffffffffffffffffffffffffffffff1673ffffffffffffffffffffffffffffffffffffffff1663a9059cbb33836040518363ffffffff1660e01b8152600401610cc89291906124b6565b602060405180830381600087803b158015610ce257600080fd5b505af1158015610cf6573d6000803e3d6000fd5b505050506040513d601f19601f82011682018060405250810190610d1a9190612166565b503373ffffffffffffffffffffffffffffffffffffffff166108fc839081150290604051600060405180830381858888f19350505050158015610d61573d6000803e3d6000fd5b50505050565b600080610d7261122d565b90506000610d808286610f8e565b905083811015610dc5576040517f08c379a0000000000000000000000000000000000000000000000000000000008152600401610dbc90612551565b60405180910390fd5b610dd28286868403611235565b60019250505092915050565b600080610de961122d565b9050610df681858561148c565b600191505092915050565b60085481565b60008083118015610e185750600082115b610e57576040517f08c379a0000000000000000000000000000000000000000000000000000000008152600401610e4e906125bd565b60405180910390fd5b60006103e585610e679190612390565b905060008382610e779190612390565b90506000826103e887610e8a9190612390565b610e9491906121c2565b90508082610ea29190612419565b93505050509392505050565b6000600660009054906101000a900473ffffffffffffffffffffffffffffffffffffffff1673ffffffffffffffffffffffffffffffffffffffff166370a08231306040518263ffffffff1660e01b8152600401610f0b9190611ea2565b60206040518083038186803b158015610f2357600080fd5b505afa158015610f37573d6000803e3d6000fd5b505050506040513d601f19601f82011682018060405250810190610f5b91906125f2565b905090565b600760009054906101000a900473ffffffffffffffffffffffffffffffffffffffff1681565b600047905090565b6000600260008473ffffffffffffffffffffffffffffffffffffffff1673ffffffffffffffffffffffffffffffffffffffff16815260200190815260200160002060008373ffffffffffffffffffffffffffffffffffffffff1673ffffffffffffffffffffffffffffffffffffffff16815260200190815260200160002054905092915050565b600034611020610f86565b61102a91906122f0565b90506000611036610eae565b90506000611045348484610e07565b90508184111561108a576040517f08c379a00000000000000000000000000000000000000000000000000000000081526004016110819061266b565b60405180910390fd5b808411156110cd576040517f08c379a00000000000000000000000000000000000000000000000000000000081526004016110c4906120e3565b60405180910390fd5b600660009054906101000a900473ffffffffffffffffffffffffffffffffffffffff1673ffffffffffffffffffffffffffffffffffffffff1663a9059cbb33836040518363ffffffff1660e01b815260040161112a9291906124b6565b602060405180830381600087803b15801561114457600080fd5b505af1158015611158573d6000803e3d6000fd5b505050506040513d601f19601f8201168201806040525081019061117c9190612166565b5050505050565b61118b61185f565b600073ffffffffffffffffffffffffffffffffffffffff168173ffffffffffffffffffffffffffffffffffffffff1614156111fb576040517f08c379a00000000000000000000000000000000000000000000000000000000081526004016111f2906126fd565b60405180910390fd5b611204816118dd565b50565b600660009054906101000a900473ffffffffffffffffffffffffffffffffffffffff1681565b600033905090565b600073ffffffffffffffffffffffffffffffffffffffff168373ffffffffffffffffffffffffffffffffffffffff1614156112a5576040517f08c379a000000000000000000000000000000000000000000000000000000000815260040161129c9061278f565b60405180910390fd5b600073ffffffffffffffffffffffffffffffffffffffff168273ffffffffffffffffffffffffffffffffffffffff161415611315576040517f08c379a000000000000000000000000000000000000000000000000000000000815260040161130c90612821565b60405180910390fd5b80600260008573ffffffffffffffffffffffffffffffffffffffff1673ffffffffffffffffffffffffffffffffffffffff16815260200190815260200160002060008473ffffffffffffffffffffffffffffffffffffffff1673ffffffffffffffffffffffffffffffffffffffff168152602001908152602001600020819055508173ffffffffffffffffffffffffffffffffffffffff168373ffffffffffffffffffffffffffffffffffffffff167f8c5be1e5ebec7d5bd14f71427d1e84f3dd0314c0f7b2291e5b200ac8c7c3b925836040516113f39190611d54565b60405180910390a3505050565b600061140c8484610f8e565b90507fffffffffffffffffffffffffffffffffffffffffffffffffffffffffffffffff81146114865781811015611478576040517f08c379a000000000000000000000000000000000000000000000000000000000815260040161146f9061288d565b60405180910390fd5b6114858484848403611235565b5b50505050565b600073ffffffffffffffffffffffffffffffffffffffff168373ffffffffffffffffffffffffffffffffffffffff1614156114fc576040517f08c379a00000000000000000000000000000000000000000000000000000000081526004016114f39061291f565b60405180910390fd5b600073ffffffffffffffffffffffffffffffffffffffff168273ffffffffffffffffffffffffffffffffffffffff16141561156c576040517f08c379a0000000000000000000000000000000000000000000000000000000008152600401611563906129b1565b60405180910390fd5b611577838383611b71565b6000600160008573ffffffffffffffffffffffffffffffffffffffff1673ffffffffffffffffffffffffffffffffffffffff168152602001908152602001600020549050818110156115fe576040517f08c379a00000000000000000000000000000000000000000000000000000000081526004016115f590612a43565b60405180910390fd5b818103600160008673ffffffffffffffffffffffffffffffffffffffff1673ffffffffffffffffffffffffffffffffffffffff1681526020019081526020016000208190555081600160008573ffffffffffffffffffffffffffffffffffffffff1673ffffffffffffffffffffffffffffffffffffffff168152602001908152602001600020600082825401925050819055508273ffffffffffffffffffffffffffffffffffffffff168473ffffffffffffffffffffffffffffffffffffffff167fddf252ad1be2c89b69c2b068fc378daa952ba7f163c4a11628f55a4df523b3ef846040516116ee9190611d54565b60405180910390a3611701848484611b76565b50505050565b600073ffffffffffffffffffffffffffffffffffffffff168273ffffffffffffffffffffffffffffffffffffffff161415611777576040517f08c379a000000000000000000000000000000000000000000000000000000000815260040161176e90612aaf565b60405180910390fd5b61178360008383611b71565b806003600082825461179591906121c2565b9250508190555080600160008473ffffffffffffffffffffffffffffffffffffffff1673ffffffffffffffffffffffffffffffffffffffff168152602001908152602001600020600082825401925050819055508173ffffffffffffffffffffffffffffffffffffffff16600073ffffffffffffffffffffffffffffffffffffffff167fddf252ad1be2c89b69c2b068fc378daa952ba7f163c4a11628f55a4df523b3ef836040516118479190611d54565b60405180910390a361185b60008383611b76565b5050565b61186761122d565b73ffffffffffffffffffffffffffffffffffffffff16611885610b11565b73ffffffffffffffffffffffffffffffffffffffff16146118db576040517f08c379a00000000000000000000000000000000000000000000000000000000081526004016118d290612b1b565b60405180910390fd5b565b60008060009054906101000a900473ffffffffffffffffffffffffffffffffffffffff169050816000806101000a81548173ffffffffffffffffffffffffffffffffffffffff021916908373ffffffffffffffffffffffffffffffffffffffff1602179055508173ffffffffffffffffffffffffffffffffffffffff168173ffffffffffffffffffffffffffffffffffffffff167f8be0079c531659141344cd1fd0a4f28419497f9722a3daafe3b4186f6b6457e060405160405180910390a35050565b600073ffffffffffffffffffffffffffffffffffffffff168273ffffffffffffffffffffffffffffffffffffffff161415611a11576040517f08c379a0000000000000000000000000000000000000000000000000000000008152600401611a0890612bad565b60405180910390fd5b611a1d82600083611b71565b6000600160008473ffffffffffffffffffffffffffffffffffffffff1673ffffffffffffffffffffffffffffffffffffffff16815260200190815260200160002054905081811015611aa4576040517f08c379a0000000000000000000000000000000000000000000000000000000008152600401611a9b90612c3f565b60405180910390fd5b818103600160008573ffffffffffffffffffffffffffffffffffffffff1673ffffffffffffffffffffffffffffffffffffffff1681526020019081526020016000208190555081600360008282540392505081905550600073ffffffffffffffffffffffffffffffffffffffff168373ffffffffffffffffffffffffffffffffffffffff167fddf252ad1be2c89b69c2b068fc378daa952ba7f163c4a11628f55a4df523b3ef84604051611b589190611d54565b60405180910390a3611b6c83600084611b76565b505050565b505050565b505050565b600081519050919050565b600082825260208201905092915050565b60005b83811015611bb5578082015181840152602081019050611b9a565b83811115611bc4576000848401525b50505050565b6000601f19601f8301169050919050565b6000611be682611b7b565b611bf08185611b86565b9350611c00818560208601611b97565b611c0981611bca565b840191505092915050565b60006020820190508181036000830152611c2e8184611bdb565b905092915050565b600080fd5b600073ffffffffffffffffffffffffffffffffffffffff82169050919050565b6000611c6682611c3b565b9050919050565b611c7681611c5b565b8114611c8157600080fd5b50565b600081359050611c9381611c6d565b92915050565b6000819050919050565b611cac81611c99565b8114611cb757600080fd5b50565b600081359050611cc981611ca3565b92915050565b60008060408385031215611ce657611ce5611c36565b5b6000611cf485828601611c84565b9250506020611d0585828601611cba565b9150509250929050565b60008115159050919050565b611d2481611d0f565b82525050565b6000602082019050611d3f6000830184611d1b565b92915050565b611d4e81611c99565b82525050565b6000602082019050611d696000830184611d45565b92915050565b60008060408385031215611d8657611d85611c36565b5b6000611d9485828601611cba565b9250506020611da585828601611cba565b9150509250929050565b600080600060608486031215611dc857611dc7611c36565b5b6000611dd686828701611c84565b9350506020611de786828701611c84565b9250506040611df886828701611cba565b9150509250925092565b600060ff82169050919050565b611e1881611e02565b82525050565b6000602082019050611e336000830184611e0f565b92915050565b600060208284031215611e4f57611e4e611c36565b5b6000611e5d84828501611cba565b91505092915050565b600060208284031215611e7c57611e7b611c36565b5b6000611e8a84828501611c84565b91505092915050565b611e9c81611c5b565b82525050565b6000602082019050611eb76000830184611e93565b92915050565b600080600060608486031215611ed657611ed5611c36565b5b6000611ee486828701611cba565b9350506020611ef586828701611cba565b9250506040611f0686828701611cba565b9150509250925092565b60008060408385031215611f2757611f26611c36565b5b6000611f3585828601611c84565b9250506020611f4685828601611c84565b9150509250929050565b6000819050919050565b6000611f75611f70611f6b84611c3b565b611f50565b611c3b565b9050919050565b6000611f8782611f5a565b9050919050565b6000611f9982611f7c565b9050919050565b611fa981611f8e565b82525050565b6000602082019050611fc46000830184611fa0565b92915050565b7f4e487b7100000000000000000000000000000000000000000000000000000000600052602260045260246000fd5b6000600282049050600182168061201157607f821691505b6020821081141561202557612024611fca565b5b50919050565b7f696e73756666696369656e74206c697175696469747921000000000000000000600082015250565b6000612061601783611b86565b915061206c8261202b565b602082019050919050565b6000602082019050818103600083015261209081612054565b9050919050565b7f696e73737566696369656e74206f757470757420616d6f756e74210000000000600082015250565b60006120cd601b83611b86565b91506120d882612097565b602082019050919050565b600060208201905081810360008301526120fc816120c0565b9050919050565b60006060820190506121186000830186611e93565b6121256020830185611e93565b6121326040830184611d45565b949350505050565b61214381611d0f565b811461214e57600080fd5b50565b6000815190506121608161213a565b92915050565b60006020828403121561217c5761217b611c36565b5b600061218a84828501612151565b91505092915050565b7f4e487b7100000000000000000000000000000000000000000000000000000000600052601160045260246000fd5b60006121cd82611c99565b91506121d883611c99565b9250827fffffffffffffffffffffffffffffffffffffffffffffffffffffffffffffffff0382111561220d5761220c612193565b5b828201905092915050565b7f63616e206e6f742073656e642030206574686572000000000000000000000000600082015250565b600061224e601483611b86565b915061225982612218565b602082019050919050565b6000602082019050818103600083015261227d81612241565b9050919050565b7f63616e206e6f742073656e64203020746f6b656e730000000000000000000000600082015250565b60006122ba601583611b86565b91506122c582612284565b602082019050919050565b600060208201905081810360008301526122e9816122ad565b9050919050565b60006122fb82611c99565b915061230683611c99565b92508282101561231957612318612193565b5b828203905092915050565b7f496e73756666696369656e7420746f6b656e7321000000000000000000000000600082015250565b600061235a601483611b86565b915061236582612324565b602082019050919050565b600060208201905081810360008301526123898161234d565b9050919050565b600061239b82611c99565b91506123a683611c99565b9250817fffffffffffffffffffffffffffffffffffffffffffffffffffffffffffffffff04831182151516156123df576123de612193565b5b828202905092915050565b7f4e487b7100000000000000000000000000000000000000000000000000000000600052601260045260246000fd5b600061242482611c99565b915061242f83611c99565b92508261243f5761243e6123ea565b5b828204905092915050565b7f4c5020746f6b656e73203e203000000000000000000000000000000000000000600082015250565b6000612480600d83611b86565b915061248b8261244a565b602082019050919050565b600060208201905081810360008301526124af81612473565b9050919050565b60006040820190506124cb6000830185611e93565b6124d86020830184611d45565b9392505050565b7f45524332303a2064656372656173656420616c6c6f77616e63652062656c6f7760008201527f207a65726f000000000000000000000000000000000000000000000000000000602082015250565b600061253b602583611b86565b9150612546826124df565b604082019050919050565b6000602082019050818103600083015261256a8161252e565b9050919050565b7f496e73756666696369656e742072657365727665730000000000000000000000600082015250565b60006125a7601583611b86565b91506125b282612571565b602082019050919050565b600060208201905081810360008301526125d68161259a565b9050919050565b6000815190506125ec81611ca3565b92915050565b60006020828403121561260857612607611c36565b5b6000612616848285016125dd565b91505092915050565b7f696e73756666696369656e74206c697175696469747900000000000000000000600082015250565b6000612655601683611b86565b91506126608261261f565b602082019050919050565b6000602082019050818103600083015261268481612648565b9050919050565b7f4f776e61626c653a206e6577206f776e657220697320746865207a65726f206160008201527f6464726573730000000000000000000000000000000000000000000000000000602082015250565b60006126e7602683611b86565b91506126f28261268b565b604082019050919050565b60006020820190508181036000830152612716816126da565b9050919050565b7f45524332303a20617070726f76652066726f6d20746865207a65726f2061646460008201527f7265737300000000000000000000000000000000000000000000000000000000602082015250565b6000612779602483611b86565b91506127848261271d565b604082019050919050565b600060208201905081810360008301526127a88161276c565b9050919050565b7f45524332303a20617070726f766520746f20746865207a65726f20616464726560008201527f7373000000000000000000000000000000000000000000000000000000000000602082015250565b600061280b602283611b86565b9150612816826127af565b604082019050919050565b6000602082019050818103600083015261283a816127fe565b9050919050565b7f45524332303a20696e73756666696369656e7420616c6c6f77616e6365000000600082015250565b6000612877601d83611b86565b915061288282612841565b602082019050919050565b600060208201905081810360008301526128a68161286a565b9050919050565b7f45524332303a207472616e736665722066726f6d20746865207a65726f20616460008201527f6472657373000000000000000000000000000000000000000000000000000000602082015250565b6000612909602583611b86565b9150612914826128ad565b604082019050919050565b60006020820190508181036000830152612938816128fc565b9050919050565b7f45524332303a207472616e7366657220746f20746865207a65726f206164647260008201527f6573730000000000000000000000000000000000000000000000000000000000602082015250565b600061299b602383611b86565b91506129a68261293f565b604082019050919050565b600060208201905081810360008301526129ca8161298e565b9050919050565b7f45524332303a207472616e7366657220616d6f756e742065786365656473206260008201527f616c616e63650000000000000000000000000000000000000000000000000000602082015250565b6000612a2d602683611b86565b9150612a38826129d1565b604082019050919050565b60006020820190508181036000830152612a5c81612a20565b9050919050565b7f45524332303a206d696e7420746f20746865207a65726f206164647265737300600082015250565b6000612a99601f83611b86565b9150612aa482612a63565b602082019050919050565b60006020820190508181036000830152612ac881612a8c565b9050919050565b7f4f776e61626c653a2063616c6c6572206973206e6f7420746865206f776e6572600082015250565b6000612b05602083611b86565b9150612b1082612acf565b602082019050919050565b60006020820190508181036000830152612b3481612af8565b9050919050565b7f45524332303a206275726e2066726f6d20746865207a65726f2061646472657360008201527f7300000000000000000000000000000000000000000000000000000000000000602082015250565b6000612b97602183611b86565b9150612ba282612b3b565b604082019050919050565b60006020820190508181036000830152612bc681612b8a565b9050919050565b7f45524332303a206275726e20616d6f756e7420657863656564732062616c616e60008201527f6365000000000000000000000000000000000000000000000000000000000000602082015250565b6000612c29602283611b86565b9150612c3482612bcd565b604082019050919050565b60006020820190508181036000830152612c5881612c1c565b905091905056fea264697066735822122066c2f172294eb03659030bc91435850c913843671409a3a12f1be014b3cd2a3664736f6c63430008080033",
  "linkReferences": {},
  "deployedLinkReferences": {}
}