{
  "_format": "hh-sol-artifact-1",
  "contractName": "PoolV1",
  "sourceName": "contracts/poolV1.sol",
  "abi": [
    {
      "inputs": [
        {
          "internalType": "address",
          "name": "_token",
          "type": "address"
        }
      ],
      "stateMutability": "nonpayable",
      "type": "constructor"
    },
    {
      "anonymous": false,
      "inputs": [
        {
          "indexed": true,
          "internalType": "address",
          "name": "owner",
          "type": "address"
        },
        {
          "indexed": true,
          "internalType": "address",
          "name": "spender",
          "type": "address"
        },
        {
          "indexed": false,
          "internalType": "uint256",
          "name": "value",
          "type": "uint256"
        }
      ],
      "name": "Approval",
      "type": "event"
    },
    {
      "anonymous": false,
      "inputs": [
        {
          "indexed": true,
          "internalType": "address",
          "name": "previousOwner",
          "type": "address"
        },
        {
          "indexed": true,
          "internalType": "address",
          "name": "newOwner",
          "type": "address"
        }
      ],
      "name": "OwnershipTransferred",
      "type": "event"
    },
    {
      "anonymous": false,
      "inputs": [
        {
          "indexed": true,
          "internalType": "address",
          "name": "from",
          "type": "address"
        },
        {
          "indexed": true,
          "internalType": "address",
          "name": "to",
          "type": "address"
        },
        {
          "indexed": false,
          "internalType": "uint256",
          "name": "value",
          "type": "uint256"
        }
      ],
      "name": "Transfer",
      "type": "event"
    },
    {
      "inputs": [
        {
          "internalType": "uint256",
          "name": "tokensIn",
          "type": "uint256"
        },
        {
          "internalType": "uint256",
          "name": "minOut",
          "type": "uint256"
        },
        {
          "internalType": "address",
          "name": "_to",
          "type": "address"
        }
      ],
      "name": "TokenToEtherSwap",
      "outputs": [],
      "stateMutability": "payable",
      "type": "function"
    },
    {
      "inputs": [
        {
          "internalType": "address",
          "name": "_token",
          "type": "address"
        },
        {
          "internalType": "uint256",
          "name": "_tokenIn",
          "type": "uint256"
        },
        {
          "internalType": "uint256",
          "name": "minTokenOut",
          "type": "uint256"
        }
      ],
      "name": "TokenToTokenSwap",
      "outputs": [],
      "stateMutability": "payable",
      "type": "function"
    },
    {
      "inputs": [
        {
          "internalType": "uint256",
          "name": "tokensAmount",
          "type": "uint256"
        }
      ],
      "name": "addLiquidity",
      "outputs": [],
      "stateMutability": "payable",
      "type": "function"
    },
    {
      "inputs": [
        {
          "internalType": "address",
          "name": "owner",
          "type": "address"
        },
        {
          "internalType": "address",
          "name": "spender",
          "type": "address"
        }
      ],
      "name": "allowance",
      "outputs": [
        {
          "internalType": "uint256",
          "name": "",
          "type": "uint256"
        }
      ],
      "stateMutability": "view",
      "type": "function"
    },
    {
      "inputs": [
        {
          "internalType": "address",
          "name": "spender",
          "type": "address"
        },
        {
          "internalType": "uint256",
          "name": "amount",
          "type": "uint256"
        }
      ],
      "name": "approve",
      "outputs": [
        {
          "internalType": "bool",
          "name": "",
          "type": "bool"
        }
      ],
      "stateMutability": "nonpayable",
      "type": "function"
    },
    {
      "inputs": [
        {
          "internalType": "address",
          "name": "account",
          "type": "address"
        }
      ],
      "name": "balanceOf",
      "outputs": [
        {
          "internalType": "uint256",
          "name": "",
          "type": "uint256"
        }
      ],
      "stateMutability": "view",
      "type": "function"
    },
    {
      "inputs": [],
      "name": "decimals",
      "outputs": [
        {
          "internalType": "uint8",
          "name": "",
          "type": "uint8"
        }
      ],
      "stateMutability": "view",
      "type": "function"
    },
    {
      "inputs": [
        {
          "internalType": "address",
          "name": "spender",
          "type": "address"
        },
        {
          "internalType": "uint256",
          "name": "subtractedValue",
          "type": "uint256"
        }
      ],
      "name": "decreaseAllowance",
      "outputs": [
        {
          "internalType": "bool",
          "name": "",
          "type": "bool"
        }
      ],
      "stateMutability": "nonpayable",
      "type": "function"
    },
    {
      "inputs": [],
      "name": "etherFees",
      "outputs": [
        {
          "internalType": "uint256",
          "name": "",
          "type": "uint256"
        }
      ],
      "stateMutability": "view",
      "type": "function"
    },
    {
      "inputs": [
        {
          "internalType": "uint256",
          "name": "minOut",
          "type": "uint256"
        },
        {
          "internalType": "address",
          "name": "_to",
          "type": "address"
        }
      ],
      "name": "etherToTokenSwap",
      "outputs": [],
      "stateMutability": "payable",
      "type": "function"
    },
    {
      "inputs": [],
      "name": "fac",
      "outputs": [
        {
          "internalType": "contract factory",
          "name": "",
          "type": "address"
        }
      ],
      "stateMutability": "view",
      "type": "function"
    },
    {
      "inputs": [
        {
          "internalType": "uint256",
          "name": "tokensIn",
          "type": "uint256"
        },
        {
          "internalType": "uint256",
          "name": "InRes",
          "type": "uint256"
        },
        {
          "internalType": "uint256",
          "name": "outRes",
          "type": "uint256"
        }
      ],
      "name": "getAmountsOut",
      "outputs": [
        {
          "internalType": "uint256",
          "name": "",
          "type": "uint256"
        }
      ],
      "stateMutability": "pure",
      "type": "function"
    },
    {
      "inputs": [],
      "name": "getEtherReserves",
      "outputs": [
        {
          "internalType": "uint256",
          "name": "",
          "type": "uint256"
        }
      ],
      "stateMutability": "view",
      "type": "function"
    },
    {
      "inputs": [],
      "name": "getTokenReserves",
      "outputs": [
        {
          "internalType": "uint256",
          "name": "",
          "type": "uint256"
        }
      ],
      "stateMutability": "view",
      "type": "function"
    },
    {
      "inputs": [
        {
          "internalType": "address",
          "name": "spender",
          "type": "address"
        },
        {
          "internalType": "uint256",
          "name": "addedValue",
          "type": "uint256"
        }
      ],
      "name": "increaseAllowance",
      "outputs": [
        {
          "internalType": "bool",
          "name": "",
          "type": "bool"
        }
      ],
      "stateMutability": "nonpayable",
      "type": "function"
    },
    {
      "inputs": [],
      "name": "name",
      "outputs": [
        {
          "internalType": "string",
          "name": "",
          "type": "string"
        }
      ],
      "stateMutability": "view",
      "type": "function"
    },
    {
      "inputs": [],
      "name": "owner",
      "outputs": [
        {
          "internalType": "address",
          "name": "",
          "type": "address"
        }
      ],
      "stateMutability": "view",
      "type": "function"
    },
    {
      "inputs": [
        {
          "internalType": "uint256",
          "name": "lpTokens",
          "type": "uint256"
        }
      ],
      "name": "removeLiquidity",
      "outputs": [],
      "stateMutability": "payable",
      "type": "function"
    },
    {
      "inputs": [],
      "name": "renounceOwnership",
      "outputs": [],
      "stateMutability": "nonpayable",
      "type": "function"
    },
    {
      "inputs": [],
      "name": "symbol",
      "outputs": [
        {
          "internalType": "string",
          "name": "",
          "type": "string"
        }
      ],
      "stateMutability": "view",
      "type": "function"
    },
    {
      "inputs": [],
      "name": "token",
      "outputs": [
        {
          "internalType": "contract IERC20",
          "name": "",
          "type": "address"
        }
      ],
      "stateMutability": "view",
      "type": "function"
    },
    {
      "inputs": [],
      "name": "tokenFees",
      "outputs": [
        {
          "internalType": "uint256",
          "name": "",
          "type": "uint256"
        }
      ],
      "stateMutability": "view",
      "type": "function"
    },
    {
      "inputs": [],
      "name": "totalSupply",
      "outputs": [
        {
          "internalType": "uint256",
          "name": "",
          "type": "uint256"
        }
      ],
      "stateMutability": "view",
      "type": "function"
    },
    {
      "inputs": [
        {
          "internalType": "address",
          "name": "to",
          "type": "address"
        },
        {
          "internalType": "uint256",
          "name": "amount",
          "type": "uint256"
        }
      ],
      "name": "transfer",
      "outputs": [
        {
          "internalType": "bool",
          "name": "",
          "type": "bool"
        }
      ],
      "stateMutability": "nonpayable",
      "type": "function"
    },
    {
      "inputs": [
        {
          "internalType": "address",
          "name": "from",
          "type": "address"
        },
        {
          "internalType": "address",
          "name": "to",
          "type": "address"
        },
        {
          "internalType": "uint256",
          "name": "amount",
          "type": "uint256"
        }
      ],
      "name": "transferFrom",
      "outputs": [
        {
          "internalType": "bool",
          "name": "",
          "type": "bool"
        }
      ],
      "stateMutability": "nonpayable",
      "type": "function"
    },
    {
      "inputs": [
        {
          "internalType": "address",
          "name": "newOwner",
          "type": "address"
        }
      ],
      "name": "transferOwnership",
      "outputs": [],
      "stateMutability": "nonpayable",
      "type": "function"
    },
    {
      "stateMutability": "payable",
      "type": "receive"
    }
  ],
  "bytecode": "0x60806040523480156200001157600080fd5b50604051620037e9380380620037e9833981810160405281019062000037919062000366565b6040518060400160405280600c81526020017f41746f6d44657856312d4c5000000000000000000000000000000000000000008152506040518060400160405280600381526020017f414c500000000000000000000000000000000000000000000000000000000000815250620000c3620000b76200018060201b60201c565b6200018860201b60201c565b8160049080519060200190620000db9291906200024c565b508060059080519060200190620000f49291906200024c565b50505080600660006101000a81548173ffffffffffffffffffffffffffffffffffffffff021916908373ffffffffffffffffffffffffffffffffffffffff16021790555033600760006101000a81548173ffffffffffffffffffffffffffffffffffffffff021916908373ffffffffffffffffffffffffffffffffffffffff16021790555050620003fd565b600033905090565b60008060009054906101000a900473ffffffffffffffffffffffffffffffffffffffff169050816000806101000a81548173ffffffffffffffffffffffffffffffffffffffff021916908373ffffffffffffffffffffffffffffffffffffffff1602179055508173ffffffffffffffffffffffffffffffffffffffff168173ffffffffffffffffffffffffffffffffffffffff167f8be0079c531659141344cd1fd0a4f28419497f9722a3daafe3b4186f6b6457e060405160405180910390a35050565b8280546200025a90620003c7565b90600052602060002090601f0160209004810192826200027e5760008555620002ca565b82601f106200029957805160ff1916838001178555620002ca565b82800160010185558215620002ca579182015b82811115620002c9578251825591602001919060010190620002ac565b5b509050620002d99190620002dd565b5090565b5b80821115620002f8576000816000905550600101620002de565b5090565b600080fd5b600073ffffffffffffffffffffffffffffffffffffffff82169050919050565b60006200032e8262000301565b9050919050565b620003408162000321565b81146200034c57600080fd5b50565b600081519050620003608162000335565b92915050565b6000602082840312156200037f576200037e620002fc565b5b60006200038f848285016200034f565b91505092915050565b7f4e487b7100000000000000000000000000000000000000000000000000000000600052602260045260246000fd5b60006002820490506001821680620003e057607f821691505b60208210811415620003f757620003f662000398565b5b50919050565b6133dc806200040d6000396000f3fe6080604052600436106101855760003560e01c80638da5cb5b116100d1578063b37ba1281161008a578063d2ef41ed11610064578063d2ef41ed14610562578063dd62ed3e1461058d578063f2fde38b146105ca578063fc0c546a146105f35761018c565b8063b37ba128146104cf578063b9cf50051461050c578063c3b31472146105375761018c565b80638da5cb5b146103b857806395d89b41146103e35780639c8f9f231461040e578063a457c2d71461042a578063a9059cbb14610467578063ab731cfa146104a45761018c565b80632758fc1f1161013e5780633950935111610118578063395093511461030b57806351c6590a1461034857806370a0823114610364578063715018a6146103a15761018c565b80632758fc1f146102a857806329d466ab146102c4578063313ce567146102e05761018c565b80630292bb8a1461019157806306fdde03146101ad578063095ea7b3146101d85780630b945a261461021557806318160ddd1461024057806323b872dd1461026b5761018c565b3661018c57005b600080fd5b6101ab60048036038101906101a69190612081565b61061e565b005b3480156101b957600080fd5b506101c261078d565b6040516101cf919061215a565b60405180910390f35b3480156101e457600080fd5b506101ff60048036038101906101fa919061217c565b61081f565b60405161020c91906121d7565b60405180910390f35b34801561022157600080fd5b5061022a610842565b6040516102379190612201565b60405180910390f35b34801561024c57600080fd5b50610255610848565b6040516102629190612201565b60405180910390f35b34801561027757600080fd5b50610292600480360381019061028d919061221c565b610852565b60405161029f91906121d7565b60405180910390f35b6102c260048036038101906102bd919061226f565b610881565b005b6102de60048036038101906102d991906122c2565b610caa565b005b3480156102ec57600080fd5b506102f5610e58565b6040516103029190612331565b60405180910390f35b34801561031757600080fd5b50610332600480360381019061032d919061217c565b610e61565b60405161033f91906121d7565b60405180910390f35b610362600480360381019061035d919061234c565b610e98565b005b34801561037057600080fd5b5061038b60048036038101906103869190612379565b61108f565b6040516103989190612201565b60405180910390f35b3480156103ad57600080fd5b506103b66110d8565b005b3480156103c457600080fd5b506103cd6110ec565b6040516103da91906123b5565b60405180910390f35b3480156103ef57600080fd5b506103f8611115565b604051610405919061215a565b60405180910390f35b6104286004803603810190610423919061234c565b6111a7565b005b34801561043657600080fd5b50610451600480360381019061044c919061217c565b611342565b60405161045e91906121d7565b60405180910390f35b34801561047357600080fd5b5061048e6004803603810190610489919061217c565b6113b9565b60405161049b91906121d7565b60405180910390f35b3480156104b057600080fd5b506104b96113dc565b6040516104c69190612201565b60405180910390f35b3480156104db57600080fd5b506104f660048036038101906104f191906123d0565b6113e2565b6040516105039190612201565b60405180910390f35b34801561051857600080fd5b50610521611489565b60405161052e9190612201565b60405180910390f35b34801561054357600080fd5b5061054c61153b565b6040516105599190612482565b60405180910390f35b34801561056e57600080fd5b50610577611561565b6040516105849190612201565b60405180910390f35b34801561059957600080fd5b506105b460048036038101906105af919061249d565b611569565b6040516105c19190612201565b60405180910390f35b3480156105d657600080fd5b506105f160048036038101906105ec9190612379565b6115f0565b005b3480156105ff57600080fd5b50610608611674565b60405161061591906124fe565b60405180910390f35b600034610629611561565b6106339190612548565b9050600061063f611489565b9050600061064e3484846113e2565b905081851115610693576040517f08c379a000000000000000000000000000000000000000000000000000000000815260040161068a906125c8565b60405180910390fd5b808511156106d6576040517f08c379a00000000000000000000000000000000000000000000000000000000081526004016106cd90612634565b60405180910390fd5b600660009054906101000a900473ffffffffffffffffffffffffffffffffffffffff1673ffffffffffffffffffffffffffffffffffffffff1663a9059cbb85836040518363ffffffff1660e01b8152600401610733929190612654565b602060405180830381600087803b15801561074d57600080fd5b505af1158015610761573d6000803e3d6000fd5b505050506040513d601f19601f8201168201806040525081019061078591906126a9565b505050505050565b60606004805461079c90612705565b80601f01602080910402602001604051908101604052809291908181526020018280546107c890612705565b80156108155780601f106107ea57610100808354040283529160200191610815565b820191906000526020600020905b8154815290600101906020018083116107f857829003601f168201915b5050505050905090565b60008061082a61169a565b90506108378185856116a2565b600191505092915050565b60095481565b6000600354905090565b60008061085d61169a565b905061086a85828561186d565b6108758585856118f9565b60019150509392505050565b6000600760009054906101000a900473ffffffffffffffffffffffffffffffffffffffff1673ffffffffffffffffffffffffffffffffffffffff1663bbe4f6db856040518263ffffffff1660e01b81526004016108de91906123b5565b60206040518083038186803b1580156108f657600080fd5b505afa15801561090a573d6000803e3d6000fd5b505050506040513d601f19601f8201168201806040525081019061092e919061274c565b9050600073ffffffffffffffffffffffffffffffffffffffff168173ffffffffffffffffffffffffffffffffffffffff1614156109a0576040517f08c379a0000000000000000000000000000000000000000000000000000000008152600401610997906127c5565b60405180910390fd5b8373ffffffffffffffffffffffffffffffffffffffff166323b872dd3330866040518463ffffffff1660e01b81526004016109dd939291906127e5565b602060405180830381600087803b1580156109f757600080fd5b505af1158015610a0b573d6000803e3d6000fd5b505050506040513d601f19601f82011682018060405250810190610a2f91906126a9565b5060004790508473ffffffffffffffffffffffffffffffffffffffff1663095ea7b383866040518363ffffffff1660e01b8152600401610a70929190612654565b602060405180830381600087803b158015610a8a57600080fd5b505af1158015610a9e573d6000803e3d6000fd5b505050506040513d601f19601f82011682018060405250810190610ac291906126a9565b508173ffffffffffffffffffffffffffffffffffffffff166329d466ab856000306040518463ffffffff1660e01b8152600401610b0193929190612857565b600060405180830381600087803b158015610b1b57600080fd5b505af1158015610b2f573d6000803e3d6000fd5b5050505060008147610b419190612548565b905060008111610b86576040517f08c379a0000000000000000000000000000000000000000000000000000000008152600401610b7d906128da565b60405180910390fd5b6000610bac8283610b95611561565b610b9f9190612548565b610ba7611489565b6113e2565b905084811015610bf1576040517f08c379a0000000000000000000000000000000000000000000000000000000008152600401610be890612946565b60405180910390fd5b600660009054906101000a900473ffffffffffffffffffffffffffffffffffffffff1673ffffffffffffffffffffffffffffffffffffffff1663a9059cbb33836040518363ffffffff1660e01b8152600401610c4e929190612654565b602060405180830381600087803b158015610c6857600080fd5b505af1158015610c7c573d6000803e3d6000fd5b505050506040513d601f19601f82011682018060405250810190610ca091906126a9565b5050505050505050565b6000610cb4611561565b90506000610cc0611489565b90506000610ccf8683856113e2565b905082851115610d14576040517f08c379a0000000000000000000000000000000000000000000000000000000008152600401610d0b906129b2565b60405180910390fd5b80851115610d57576040517f08c379a0000000000000000000000000000000000000000000000000000000008152600401610d4e90612634565b60405180910390fd5b600660009054906101000a900473ffffffffffffffffffffffffffffffffffffffff1673ffffffffffffffffffffffffffffffffffffffff166323b872dd3330896040518463ffffffff1660e01b8152600401610db6939291906127e5565b602060405180830381600087803b158015610dd057600080fd5b505af1158015610de4573d6000803e3d6000fd5b505050506040513d601f19601f82011682018060405250810190610e0891906126a9565b508373ffffffffffffffffffffffffffffffffffffffff166108fc829081150290604051600060405180830381858888f19350505050158015610e4f573d6000803e3d6000fd5b50505050505050565b60006012905090565b600080610e6c61169a565b9050610e8d818585610e7e8589611569565b610e8891906129d2565b6116a2565b600191505092915050565b60003411610edb576040517f08c379a0000000000000000000000000000000000000000000000000000000008152600401610ed290612a74565b60405180910390fd5b60008111610f1e576040517f08c379a0000000000000000000000000000000000000000000000000000000008152600401610f1590612ae0565b60405180910390fd5b600080610f29610848565b1415610f4157819050610f3c3334611b74565b610fd9565b610f653434610f4e611561565b610f589190612548565b610f60611489565b6113e2565b905081811115610faa576040517f08c379a0000000000000000000000000000000000000000000000000000000008152600401610fa190612b4c565b60405180910390fd5b610fd833610fb6611561565b610fbe610848565b34610fc99190612b6c565b610fd39190612bf5565b611b74565b5b600660009054906101000a900473ffffffffffffffffffffffffffffffffffffffff1673ffffffffffffffffffffffffffffffffffffffff166323b872dd3330846040518463ffffffff1660e01b8152600401611038939291906127e5565b602060405180830381600087803b15801561105257600080fd5b505af1158015611066573d6000803e3d6000fd5b505050506040513d601f19601f8201168201806040525081019061108a91906126a9565b505050565b6000600160008373ffffffffffffffffffffffffffffffffffffffff1673ffffffffffffffffffffffffffffffffffffffff168152602001908152602001600020549050919050565b6110e0611ccc565b6110ea6000611d4a565b565b60008060009054906101000a900473ffffffffffffffffffffffffffffffffffffffff16905090565b60606005805461112490612705565b80601f016020809104026020016040519081016040528092919081815260200182805461115090612705565b801561119d5780601f106111725761010080835404028352916020019161119d565b820191906000526020600020905b81548152906001019060200180831161118057829003601f168201915b5050505050905090565b600081116111ea576040517f08c379a00000000000000000000000000000000000000000000000000000000081526004016111e190612c72565b60405180910390fd5b60006111f4610848565b6111fc611561565b836112079190612b6c565b6112119190612bf5565b9050600061121d610848565b611225611489565b846112309190612b6c565b61123a9190612bf5565b90506112463384611e0e565b600660009054906101000a900473ffffffffffffffffffffffffffffffffffffffff1673ffffffffffffffffffffffffffffffffffffffff1663a9059cbb33836040518363ffffffff1660e01b81526004016112a3929190612654565b602060405180830381600087803b1580156112bd57600080fd5b505af11580156112d1573d6000803e3d6000fd5b505050506040513d601f19601f820116820180604052508101906112f591906126a9565b503373ffffffffffffffffffffffffffffffffffffffff166108fc839081150290604051600060405180830381858888f1935050505015801561133c573d6000803e3d6000fd5b50505050565b60008061134d61169a565b9050600061135b8286611569565b9050838110156113a0576040517f08c379a000000000000000000000000000000000000000000000000000000000815260040161139790612d04565b60405180910390fd5b6113ad82868684036116a2565b60019250505092915050565b6000806113c461169a565b90506113d18185856118f9565b600191505092915050565b60085481565b600080831180156113f35750600082115b611432576040517f08c379a000000000000000000000000000000000000000000000000000000000815260040161142990612d70565b60405180910390fd5b60006103e5856114429190612b6c565b9050600083826114529190612b6c565b90506000826103e8876114659190612b6c565b61146f91906129d2565b9050808261147d9190612bf5565b93505050509392505050565b6000600660009054906101000a900473ffffffffffffffffffffffffffffffffffffffff1673ffffffffffffffffffffffffffffffffffffffff166370a08231306040518263ffffffff1660e01b81526004016114e691906123b5565b60206040518083038186803b1580156114fe57600080fd5b505afa158015611512573d6000803e3d6000fd5b505050506040513d601f19601f820116820180604052508101906115369190612da5565b905090565b600760009054906101000a900473ffffffffffffffffffffffffffffffffffffffff1681565b600047905090565b6000600260008473ffffffffffffffffffffffffffffffffffffffff1673ffffffffffffffffffffffffffffffffffffffff16815260200190815260200160002060008373ffffffffffffffffffffffffffffffffffffffff1673ffffffffffffffffffffffffffffffffffffffff16815260200190815260200160002054905092915050565b6115f8611ccc565b600073ffffffffffffffffffffffffffffffffffffffff168173ffffffffffffffffffffffffffffffffffffffff161415611668576040517f08c379a000000000000000000000000000000000000000000000000000000000815260040161165f90612e44565b60405180910390fd5b61167181611d4a565b50565b600660009054906101000a900473ffffffffffffffffffffffffffffffffffffffff1681565b600033905090565b600073ffffffffffffffffffffffffffffffffffffffff168373ffffffffffffffffffffffffffffffffffffffff161415611712576040517f08c379a000000000000000000000000000000000000000000000000000000000815260040161170990612ed6565b60405180910390fd5b600073ffffffffffffffffffffffffffffffffffffffff168273ffffffffffffffffffffffffffffffffffffffff161415611782576040517f08c379a000000000000000000000000000000000000000000000000000000000815260040161177990612f68565b60405180910390fd5b80600260008573ffffffffffffffffffffffffffffffffffffffff1673ffffffffffffffffffffffffffffffffffffffff16815260200190815260200160002060008473ffffffffffffffffffffffffffffffffffffffff1673ffffffffffffffffffffffffffffffffffffffff168152602001908152602001600020819055508173ffffffffffffffffffffffffffffffffffffffff168373ffffffffffffffffffffffffffffffffffffffff167f8c5be1e5ebec7d5bd14f71427d1e84f3dd0314c0f7b2291e5b200ac8c7c3b925836040516118609190612201565b60405180910390a3505050565b60006118798484611569565b90507fffffffffffffffffffffffffffffffffffffffffffffffffffffffffffffffff81146118f357818110156118e5576040517f08c379a00000000000000000000000000000000000000000000000000000000081526004016118dc90612fd4565b60405180910390fd5b6118f284848484036116a2565b5b50505050565b600073ffffffffffffffffffffffffffffffffffffffff168373ffffffffffffffffffffffffffffffffffffffff161415611969576040517f08c379a000000000000000000000000000000000000000000000000000000000815260040161196090613066565b60405180910390fd5b600073ffffffffffffffffffffffffffffffffffffffff168273ffffffffffffffffffffffffffffffffffffffff1614156119d9576040517f08c379a00000000000000000000000000000000000000000000000000000000081526004016119d0906130f8565b60405180910390fd5b6119e4838383611fde565b6000600160008573ffffffffffffffffffffffffffffffffffffffff1673ffffffffffffffffffffffffffffffffffffffff16815260200190815260200160002054905081811015611a6b576040517f08c379a0000000000000000000000000000000000000000000000000000000008152600401611a629061318a565b60405180910390fd5b818103600160008673ffffffffffffffffffffffffffffffffffffffff1673ffffffffffffffffffffffffffffffffffffffff1681526020019081526020016000208190555081600160008573ffffffffffffffffffffffffffffffffffffffff1673ffffffffffffffffffffffffffffffffffffffff168152602001908152602001600020600082825401925050819055508273ffffffffffffffffffffffffffffffffffffffff168473ffffffffffffffffffffffffffffffffffffffff167fddf252ad1be2c89b69c2b068fc378daa952ba7f163c4a11628f55a4df523b3ef84604051611b5b9190612201565b60405180910390a3611b6e848484611fe3565b50505050565b600073ffffffffffffffffffffffffffffffffffffffff168273ffffffffffffffffffffffffffffffffffffffff161415611be4576040517f08c379a0000000000000000000000000000000000000000000000000000000008152600401611bdb906131f6565b60405180910390fd5b611bf060008383611fde565b8060036000828254611c0291906129d2565b9250508190555080600160008473ffffffffffffffffffffffffffffffffffffffff1673ffffffffffffffffffffffffffffffffffffffff168152602001908152602001600020600082825401925050819055508173ffffffffffffffffffffffffffffffffffffffff16600073ffffffffffffffffffffffffffffffffffffffff167fddf252ad1be2c89b69c2b068fc378daa952ba7f163c4a11628f55a4df523b3ef83604051611cb49190612201565b60405180910390a3611cc860008383611fe3565b5050565b611cd461169a565b73ffffffffffffffffffffffffffffffffffffffff16611cf26110ec565b73ffffffffffffffffffffffffffffffffffffffff1614611d48576040517f08c379a0000000000000000000000000000000000000000000000000000000008152600401611d3f90613262565b60405180910390fd5b565b60008060009054906101000a900473ffffffffffffffffffffffffffffffffffffffff169050816000806101000a81548173ffffffffffffffffffffffffffffffffffffffff021916908373ffffffffffffffffffffffffffffffffffffffff1602179055508173ffffffffffffffffffffffffffffffffffffffff168173ffffffffffffffffffffffffffffffffffffffff167f8be0079c531659141344cd1fd0a4f28419497f9722a3daafe3b4186f6b6457e060405160405180910390a35050565b600073ffffffffffffffffffffffffffffffffffffffff168273ffffffffffffffffffffffffffffffffffffffff161415611e7e576040517f08c379a0000000000000000000000000000000000000000000000000000000008152600401611e75906132f4565b60405180910390fd5b611e8a82600083611fde565b6000600160008473ffffffffffffffffffffffffffffffffffffffff1673ffffffffffffffffffffffffffffffffffffffff16815260200190815260200160002054905081811015611f11576040517f08c379a0000000000000000000000000000000000000000000000000000000008152600401611f0890613386565b60405180910390fd5b818103600160008573ffffffffffffffffffffffffffffffffffffffff1673ffffffffffffffffffffffffffffffffffffffff1681526020019081526020016000208190555081600360008282540392505081905550600073ffffffffffffffffffffffffffffffffffffffff168373ffffffffffffffffffffffffffffffffffffffff167fddf252ad1be2c89b69c2b068fc378daa952ba7f163c4a11628f55a4df523b3ef84604051611fc59190612201565b60405180910390a3611fd983600084611fe3565b505050565b505050565b505050565b600080fd5b6000819050919050565b61200081611fed565b811461200b57600080fd5b50565b60008135905061201d81611ff7565b92915050565b600073ffffffffffffffffffffffffffffffffffffffff82169050919050565b600061204e82612023565b9050919050565b61205e81612043565b811461206957600080fd5b50565b60008135905061207b81612055565b92915050565b6000806040838503121561209857612097611fe8565b5b60006120a68582860161200e565b92505060206120b78582860161206c565b9150509250929050565b600081519050919050565b600082825260208201905092915050565b60005b838110156120fb5780820151818401526020810190506120e0565b8381111561210a576000848401525b50505050565b6000601f19601f8301169050919050565b600061212c826120c1565b61213681856120cc565b93506121468185602086016120dd565b61214f81612110565b840191505092915050565b600060208201905081810360008301526121748184612121565b905092915050565b6000806040838503121561219357612192611fe8565b5b60006121a18582860161206c565b92505060206121b28582860161200e565b9150509250929050565b60008115159050919050565b6121d1816121bc565b82525050565b60006020820190506121ec60008301846121c8565b92915050565b6121fb81611fed565b82525050565b600060208201905061221660008301846121f2565b92915050565b60008060006060848603121561223557612234611fe8565b5b60006122438682870161206c565b93505060206122548682870161206c565b92505060406122658682870161200e565b9150509250925092565b60008060006060848603121561228857612287611fe8565b5b60006122968682870161206c565b93505060206122a78682870161200e565b92505060406122b88682870161200e565b9150509250925092565b6000806000606084860312156122db576122da611fe8565b5b60006122e98682870161200e565b93505060206122fa8682870161200e565b925050604061230b8682870161206c565b9150509250925092565b600060ff82169050919050565b61232b81612315565b82525050565b60006020820190506123466000830184612322565b92915050565b60006020828403121561236257612361611fe8565b5b60006123708482850161200e565b91505092915050565b60006020828403121561238f5761238e611fe8565b5b600061239d8482850161206c565b91505092915050565b6123af81612043565b82525050565b60006020820190506123ca60008301846123a6565b92915050565b6000806000606084860312156123e9576123e8611fe8565b5b60006123f78682870161200e565b93505060206124088682870161200e565b92505060406124198682870161200e565b9150509250925092565b6000819050919050565b600061244861244361243e84612023565b612423565b612023565b9050919050565b600061245a8261242d565b9050919050565b600061246c8261244f565b9050919050565b61247c81612461565b82525050565b60006020820190506124976000830184612473565b92915050565b600080604083850312156124b4576124b3611fe8565b5b60006124c28582860161206c565b92505060206124d38582860161206c565b9150509250929050565b60006124e88261244f565b9050919050565b6124f8816124dd565b82525050565b600060208201905061251360008301846124ef565b92915050565b7f4e487b7100000000000000000000000000000000000000000000000000000000600052601160045260246000fd5b600061255382611fed565b915061255e83611fed565b92508282101561257157612570612519565b5b828203905092915050565b7f696e73756666696369656e74206c697175696469747900000000000000000000600082015250565b60006125b26016836120cc565b91506125bd8261257c565b602082019050919050565b600060208201905081810360008301526125e1816125a5565b9050919050565b7f696e73737566696369656e74206f757470757420616d6f756e74210000000000600082015250565b600061261e601b836120cc565b9150612629826125e8565b602082019050919050565b6000602082019050818103600083015261264d81612611565b9050919050565b600060408201905061266960008301856123a6565b61267660208301846121f2565b9392505050565b612686816121bc565b811461269157600080fd5b50565b6000815190506126a38161267d565b92915050565b6000602082840312156126bf576126be611fe8565b5b60006126cd84828501612694565b91505092915050565b7f4e487b7100000000000000000000000000000000000000000000000000000000600052602260045260246000fd5b6000600282049050600182168061271d57607f821691505b60208210811415612731576127306126d6565b5b50919050565b60008151905061274681612055565b92915050565b60006020828403121561276257612761611fe8565b5b600061277084828501612737565b91505092915050565b7f70616972206e6f7420666f756e6420666f72207468697320746f6b656e210000600082015250565b60006127af601e836120cc565b91506127ba82612779565b602082019050919050565b600060208201905081810360008301526127de816127a2565b9050919050565b60006060820190506127fa60008301866123a6565b61280760208301856123a6565b61281460408301846121f2565b949350505050565b6000819050919050565b600061284161283c6128378461281c565b612423565b611fed565b9050919050565b61285181612826565b82525050565b600060608201905061286c60008301866121f2565b6128796020830185612848565b61288660408301846123a6565b949350505050565b7f526563656976656420657468657220697320746f6f206c6f7700000000000000600082015250565b60006128c46019836120cc565b91506128cf8261288e565b602082019050919050565b600060208201905081810360008301526128f3816128b7565b9050919050565b7f496e73756666696369656e7420746f6b656e73206f7574000000000000000000600082015250565b60006129306017836120cc565b915061293b826128fa565b602082019050919050565b6000602082019050818103600083015261295f81612923565b9050919050565b7f696e73756666696369656e74206c697175696469747921000000000000000000600082015250565b600061299c6017836120cc565b91506129a782612966565b602082019050919050565b600060208201905081810360008301526129cb8161298f565b9050919050565b60006129dd82611fed565b91506129e883611fed565b9250827fffffffffffffffffffffffffffffffffffffffffffffffffffffffffffffffff03821115612a1d57612a1c612519565b5b828201905092915050565b7f63616e206e6f742073656e642030206574686572000000000000000000000000600082015250565b6000612a5e6014836120cc565b9150612a6982612a28565b602082019050919050565b60006020820190508181036000830152612a8d81612a51565b9050919050565b7f63616e206e6f742073656e64203020746f6b656e730000000000000000000000600082015250565b6000612aca6015836120cc565b9150612ad582612a94565b602082019050919050565b60006020820190508181036000830152612af981612abd565b9050919050565b7f496e73756666696369656e7420746f6b656e7321000000000000000000000000600082015250565b6000612b366014836120cc565b9150612b4182612b00565b602082019050919050565b60006020820190508181036000830152612b6581612b29565b9050919050565b6000612b7782611fed565b9150612b8283611fed565b9250817fffffffffffffffffffffffffffffffffffffffffffffffffffffffffffffffff0483118215151615612bbb57612bba612519565b5b828202905092915050565b7f4e487b7100000000000000000000000000000000000000000000000000000000600052601260045260246000fd5b6000612c0082611fed565b9150612c0b83611fed565b925082612c1b57612c1a612bc6565b5b828204905092915050565b7f4c5020746f6b656e73203e203000000000000000000000000000000000000000600082015250565b6000612c5c600d836120cc565b9150612c6782612c26565b602082019050919050565b60006020820190508181036000830152612c8b81612c4f565b9050919050565b7f45524332303a2064656372656173656420616c6c6f77616e63652062656c6f7760008201527f207a65726f000000000000000000000000000000000000000000000000000000602082015250565b6000612cee6025836120cc565b9150612cf982612c92565b604082019050919050565b60006020820190508181036000830152612d1d81612ce1565b9050919050565b7f496e73756666696369656e742072657365727665730000000000000000000000600082015250565b6000612d5a6015836120cc565b9150612d6582612d24565b602082019050919050565b60006020820190508181036000830152612d8981612d4d565b9050919050565b600081519050612d9f81611ff7565b92915050565b600060208284031215612dbb57612dba611fe8565b5b6000612dc984828501612d90565b91505092915050565b7f4f776e61626c653a206e6577206f776e657220697320746865207a65726f206160008201527f6464726573730000000000000000000000000000000000000000000000000000602082015250565b6000612e2e6026836120cc565b9150612e3982612dd2565b604082019050919050565b60006020820190508181036000830152612e5d81612e21565b9050919050565b7f45524332303a20617070726f76652066726f6d20746865207a65726f2061646460008201527f7265737300000000000000000000000000000000000000000000000000000000602082015250565b6000612ec06024836120cc565b9150612ecb82612e64565b604082019050919050565b60006020820190508181036000830152612eef81612eb3565b9050919050565b7f45524332303a20617070726f766520746f20746865207a65726f20616464726560008201527f7373000000000000000000000000000000000000000000000000000000000000602082015250565b6000612f526022836120cc565b9150612f5d82612ef6565b604082019050919050565b60006020820190508181036000830152612f8181612f45565b9050919050565b7f45524332303a20696e73756666696369656e7420616c6c6f77616e6365000000600082015250565b6000612fbe601d836120cc565b9150612fc982612f88565b602082019050919050565b60006020820190508181036000830152612fed81612fb1565b9050919050565b7f45524332303a207472616e736665722066726f6d20746865207a65726f20616460008201527f6472657373000000000000000000000000000000000000000000000000000000602082015250565b60006130506025836120cc565b915061305b82612ff4565b604082019050919050565b6000602082019050818103600083015261307f81613043565b9050919050565b7f45524332303a207472616e7366657220746f20746865207a65726f206164647260008201527f6573730000000000000000000000000000000000000000000000000000000000602082015250565b60006130e26023836120cc565b91506130ed82613086565b604082019050919050565b60006020820190508181036000830152613111816130d5565b9050919050565b7f45524332303a207472616e7366657220616d6f756e742065786365656473206260008201527f616c616e63650000000000000000000000000000000000000000000000000000602082015250565b60006131746026836120cc565b915061317f82613118565b604082019050919050565b600060208201905081810360008301526131a381613167565b9050919050565b7f45524332303a206d696e7420746f20746865207a65726f206164647265737300600082015250565b60006131e0601f836120cc565b91506131eb826131aa565b602082019050919050565b6000602082019050818103600083015261320f816131d3565b9050919050565b7f4f776e61626c653a2063616c6c6572206973206e6f7420746865206f776e6572600082015250565b600061324c6020836120cc565b915061325782613216565b602082019050919050565b6000602082019050818103600083015261327b8161323f565b9050919050565b7f45524332303a206275726e2066726f6d20746865207a65726f2061646472657360008201527f7300000000000000000000000000000000000000000000000000000000000000602082015250565b60006132de6021836120cc565b91506132e982613282565b604082019050919050565b6000602082019050818103600083015261330d816132d1565b9050919050565b7f45524332303a206275726e20616d6f756e7420657863656564732062616c616e60008201527f6365000000000000000000000000000000000000000000000000000000000000602082015250565b60006133706022836120cc565b915061337b82613314565b604082019050919050565b6000602082019050818103600083015261339f81613363565b905091905056fea26469706673582212203253e1759aa8e4191eda6b7d73207595413d3847749f1e27dc251684e3bdfcea64736f6c63430008080033",
  "linkReferences": {},
  "deployedLinkReferences": {}
}